{
  "contractName": "TodoList",
  "abi": [
    {
      "constant": true,
      "inputs": [],
      "name": "user",
      "outputs": [
        {
          "name": "",
          "type": "address"
        }
      ],
      "payable": false,
      "stateMutability": "view",
      "type": "function"
    },
    {
      "constant": true,
      "inputs": [],
      "name": "taskCount",
      "outputs": [
        {
          "name": "",
          "type": "uint8"
        }
      ],
      "payable": false,
      "stateMutability": "view",
      "type": "function"
    }
  ],
  "bytecode": "0x608060405260008060146101000a81548160ff021916908360ff16021790555034801561002b57600080fd5b506101058061003b6000396000f3fe6080604052348015600f57600080fd5b506004361060325760003560e01c80634f8632ba146037578063b6cb58a514607f575b600080fd5b603d60a1565b604051808273ffffffffffffffffffffffffffffffffffffffff1673ffffffffffffffffffffffffffffffffffffffff16815260200191505060405180910390f35b608560c6565b604051808260ff1660ff16815260200191505060405180910390f35b6000809054906101000a900473ffffffffffffffffffffffffffffffffffffffff1681565b600060149054906101000a900460ff168156fea165627a7a72305820d0806b7efada8a5fb0b49b70be75a47dedf1d21513263ea3ffe837a622afa3090029",
  "source": "pragma solidity ^0.5.0;\n\ncontract TodoList {\n    // state variables\n    \n    address public user;\n    uint8 public taskCount = 0;\n\n\n\n}",
  "sourcePath": "/Users/dipeshsukhani/Desktop/Coding/DockerMounting/Python/allFolders/blockchain-to-do/contracts/TodoList.sol",
  "compiler": {
    "name": "solc",
    "version": "0.5.8+commit.23d335f2.Emscripten.clang"
  },
  "schemaVersion": "3.0.10",
  "updatedAt": "2019-07-05T02:07:00.102Z",
  "devdoc": {
    "methods": {}
  },
  "userdoc": {
    "methods": {}
  }
}